:020000040800F2
:10000000300500209D01000843170008EB1400088C
:100010004117000859030008311C000800000000C7
:100020000000000000000000000000001D18000893
:100030005B03000800000000651700081F18000897
:10004000B7010008B7010008B7010008B7010008B0
:10005000B7010008B7010008B7010008B7010008A0
:10006000B7010008B7010008B7010008B701000890
:10007000B7010008B7010008B7010008B701000880
:10008000B7010008B7010008B7010008B701000870
:10009000B7010008B7010008B7010008B701000860
:1000A000B7010008B7010008B7010008B701000850
:1000B000B7010008B7010008B7010008B701000840
:1000C000B7010008B7010008B7010008B701000830
:1000D000B7010008B7010008B7010008B701000820
:1000E000B7010008B7010008B7010008B701000810
:1000F000B7010008B7010008B7010008B701000800
:10010000B7010008B7010008B7010008B7010008EF
:10011000B7010008B7010008B7010008B7010008DF
:10012000B7010008B7010008B7010008B7010008CF
:10013000B7010008B7010008B7010008B7010008BF
:10014000B7010008B7010008B7010008B7010008AF
:10015000B7010008B7010008B7010008B70100089F
:10016000B7010008B7010008B7010008B70100088F
:10017000B7010008B7010008B7010008000000003F
:10018000B7010008B7010008DFF80CD000F03CF818
:1001900000480047551C00083005002006488047ED
:1001A00006480047FEE7FEE7FEE7FEE7FEE7FEE75C
:1001B000FEE7FEE7FEE7FEE7CD180008890100082C
:1001C00040EA01039B0703D009E008C9121F08C0D9
:1001D000042AFAD203E011F8013B00F8013B521E59
:1001E000F9D27047D2B201E000F8012B491EFBD2D0
:1001F00070470022F6E710B513460A460446194632
:10020000FFF7F0FF204610BD064C074D06E0E06802
:1002100040F0010394E8070098471034AC42F6D34D
:10022000FFF7B6FFAC1D0008CC1D0008484910B50B
:100230004A6822F440324A604A6843681A434A6076
:1002400001684A6822F480724A6001684A6803695A
:1002500042EA03224A6001684A6822F040724A601A
:1002600001684A6883681A434A6001688A6822F410
:1002700000628A6001688A68C3681A438A60816A7A
:100280006FF07062D14201688A6822F070628A6001
:1002900001688A680CD0836A1A438A6001688A6898
:1002A00022F040528A6001688A68C36A1A4301E0FA
:1002B00022F040528A6001688A6822F002028A6055
:1002C00001688A68836942EA43028A60016A0029F8
:1002D00001684A6815D042F400624A6001684A68C1
:1002E00022F460424A6001684B684FF46044426AFD
:1002F00094FAA4F4B4FA84F4521EA24013434B605F
:1003000002E022F400624A600168CA6A22F47002C4
:10031000CA620168CA6A838B0E4C04EB03531A430A
:10032000CA6201688A6822F400728A6001688A6879
:10033000036B42EA43228A6001688A6822F4806281
:100340008A6001688A68406942EA8020886010BD3E
:10035000002301400000F0FFFEE7704778B500245D
:10036000009490F83C20012A19D0012280F83C200A
:100370000A6807230568092A13D9EE680A3A02EBCE
:10038000420293409E43EE600B788A680A3B03EB7F
:1003900043039A400368DD682A43DA6010E00220D4
:1003A00078BD2E6902EB420293409E432E610B788A
:1003B0008A6803EB43039A4003681D692A431A6164
:1003C0004A681F23072A13D205686E6B521E02EB80
:1003D000820293409E436E630B790A885B1E92B241
:1003E00003EB83039A4003685D6B2A435A6327E05B
:1003F00005680D2A12D22E6BD21F02EB82029340A7
:100400009E432E630B790A88DB1F92B203EB8303B2
:100410009A4003681D6B2A431A6311E0EE6A0D3A95
:1004200002EB820293409E43EE620B790A880D3BF9
:1004300092B203EB83039A400368DD6A2A43DA62CF
:10044000164B0568144A9D4206D10D68122D03D142
:10045000556845F48005556005689D4218D10B68C4
:10046000102B01D0112B13D1536843F400035360B8
:10047000096810290CD10A490A4A0968B1FBF2F14E
:1004800001EB8101490000E0491E00910029FBD1E8
:1004900080F83C40002078BD00230140002001404E
:1004A0000400002040420F0070B504004FF000052A
:1004B00003D0206C002610B107E0012070BD6664F7
:1004C00084F83C60204600F019F8206CC00610D477
:1004D000206C20F4885040F0020020642046FFF792
:1004E000A5FE6664206C20F0020040F0010020644C
:1004F00000E0012584F83C60284670BD30B5134DFE
:100500000468002212490323124887B0AC4209D183
:100510000C6844F480740C60096801F480710591E2
:1005200010210BE00C4DAC420ED10C6844F4007469
:100530000C60096801F4007105912021CDE90013D8
:100540000292694600F018F807B030BD0020014063
:1005500044380240000002400021014031B500F063
:10056000E9F8009C0546601C00D0641C00F0E2F82D
:10057000401BA042FAD338BD2DE9F84FDFF87CB11B
:1005800000224FF001084FF0030A4FF00F090BF162
:10059000040E00BF0B6808FA02F42340A3426ED198
:1005A0004D68022D01D0122D0ED1D50800EB850C1F
:1005B000DCF820505607F70E09FA07F6B5430E6926
:1005C000BE402E43CCF82060066855000F790AFA29
:1005D00005FC07F0030726EA0C06AF403743076027
:1005E0004E68012E05D0022E03D0112E01D0122EFE
:1005F0000ED18668CF6826EA0C06AF403743876085
:100600004668A6430C79C4F3001494403443446014
:10061000C6688C6826EA0C06AC403443C4604C685B
:10062000E40065D5364C256845F48045256024688E
:1006300022F0030504F480440094324C2E19D6F8BD
:10064000084895072F0F09FA07F5AC432E4DA8422D
:1006500001D1002524E02D4DA84201D101251FE044
:100660002B4DA84201D102251AE02A4DA84201D102
:10067000032515E0284DA84202D1042510E037E0FB
:10068000264DA84201D105250AE0254DA84201D1F9
:10069000062505E0234DA84201D1072500E00825E5
:1006A000BD402543C6F80858DBF800405D464E685B
:1006B0009C43F60300D51C432C60DEF800407546D1
:1006C0004E689C43B60300D51C432C600B4D083587
:1006D0002C684E689C43F60200D51C432C60074DE5
:1006E0000C352C684E689C43B60200D51C432C6028
:1006F000521C102AFFF44EAFBDE8F88F003C0140B9
:100700004438024000300140000002400004024032
:1007100000080240000C0240001002400014024099
:1007200000180240001C02400AB1816170470904B0
:10073000FBE700000148006870470000000000204F
:1007400002480168491C0160704700000000002059
:100750000B4810B5016841F400710160016841F473
:1007600080610160016841F480710160032000F044
:1007700069F8002000F006F800F018F8002010BD1D
:10078000003C024010B5044607484FF47A710068F7
:10079000B0FBF1F000F0DDFD00222146501E00F01C
:1007A00031F8002010BD00000400002010B5032027
:1007B00000F048F8002211466FF00B0000F022F81C
:1007C000002211466FF00A0000F01CF800221146CA
:1007D0006FF0090000F016F800221146501F00F0DB
:1007E00011F800221146101F00F00CF800221146EB
:1007F000901E00F007F80022BDE810401146501E80
:10080000AFF30080F0B40E4B1B680C46C3F3022319
:10081000C3F10705042D00D90425191D072901D2AC
:10082000002300E0DB1E012606FA05F1491E2140E7
:1008300099409E40761E16403143F0BC00F082BFC6
:100840000CED00E0064900F0070208684FF6FF03D0
:10085000184040EA0220034A104308607047000035
:100860000CED00E00000FA052DE9F047DFF8649197
:1008700005460F46D9F8000000F00F01F8B2804697
:10088000B94208D2014689F80010D9F8000000F0FA
:100890000F00B84274D128784F4C800705D52068E6
:1008A000A96820F0F000084320602878C00759D0DC
:1008B00049496868083901281AD002281BD0032842
:1008C00019D00968890700295ADA216821F0030143
:1008D00001432160FFF72EFF6968064641F2883028
:1008E000012911D002291DD00329824627D035E0E5
:1008F00009688903E7E709688901E4E7FFF71AFF58
:10090000811B514501D926E082462068C0F3810051
:100910000128F3D126E000BFFFF70CFF811B5145F2
:1009200001D918E082462068C0F381000228F3D183
:1009300018E000BFFFF7FEFE811B51450BD8206871
:10094000C0F381000328F5D10CE000BFFFF7F2FEF1
:10095000811B514502D90320BDE8F087206810F0C3
:100960000C0FF3D1D9F80010484601F00F01B9423D
:1009700008D980F80080006800F00F00B84201D06C
:100980000120E9E72878400705D52068E96820F4C8
:10099000E050084320602878000706D520682969C0
:1009A00020F4604040EAC100206000F051F8216866
:1009B000F02292FAA2F201F0F001B2FA82F2D140F2
:1009C000064A515CC840064908600020FFF7DAFE7D
:1009D0000020C1E7003C024008380240241D000806
:1009E0000400002001480068704700000400002057
:1009F00008480949006809684FF4E05292FAA2F2E7
:100A000001F4E051B2FA82F2D140044A515CC8408C
:100A1000704700000400002008380240341D000820
:100A200008480949006809684FF4604292FAA2F246
:100A300001F46041B2FA82F2D140044A515CC840EC
:100A4000704700000400002008380240341D0008F0
:100A500030B51948006810F00C01184812D0441045
:100A600004290ED008290DD11349091F0A6802F084
:100A70003F030A68550247F6C07204D5B4FBF3F091
:100A800003E0204630BDB0FBF3F00B68096813406B
:100A900092FAA2F2B2FA82F2D34058434FF44032B3
:100AA00092FAA2F201F44031B2FA82F2D140491C2A
:100AB0004900B0FBF1F030BD083802400024F400DA
:100AC0002DE9F84F0546DFF8FC920078A9F1040BF8
:100AD000C007ABF1040449D0D9F800104846C1F36F
:100AE0008101012908D00068C0F3810002280AD1E1
:100AF000DBF80000400206D52068800336D5686820
:100B000000286ED032E06868B0F5803F10D0B0F5B4
:100B1000A02F206810D020F480302060206820F4BE
:100B2000802020606868A0B1FFF704FE06460CE054
:100B3000206840F48030F4E740F480202060F7E73C
:100B4000FFF7F8FD801B642871D820688003F7D573
:100B50000CE0FFF7EFFD064605E000BFFFF7EAFDFA
:100B6000801B6428F0D820688003F7D42878964F3B
:100B700080074FF0010A4FF0000841D5D9F8001066
:100B8000484611F00C0F08D00068C0F3810002281D
:100B90000AD1DBF80000400206D42068800713D594
:100BA000E86801281DD10FE0E868D8B1C7F800A0B7
:100BB000FFF7C0FD064604E0FFF7BCFD801B0228DE
:100BC000C2D820688007F7D52068F82292FAA2F2EE
:100BD0002969B2FA82F220F0F800914008432060BF
:100BE0000EE0ECE0C7F80080FFF7A4FD064604E045
:100BF000FFF7A0FD801B022819D820688007F7D4D2
:100C00002878000724D57148696989B1C0F800A027
:100C1000FFF790FD064604E0FFF78CFD801B0228DD
:100C200005D868486C3000688007F5D510E07AE098
:100C3000C0F80080FFF77EFD064604E0FFF77AFD6E
:100C4000801B02286FD85F486C3000688007F5D49D
:100C50002878400753D55B483830016841F080510F
:100C60000160006800F0805000905948016841F42C
:100C700080710160FFF75EFD064604E0FFF75AFD54
:100C8000801B02284FD852480068C005F6D54D4E4B
:100C9000A868683601280FD00528306810D020F0E9
:100CA00001003060306820F004003060A868B8B1FE
:100CB000FFF740FD00900FE0306840F00100F4E7DE
:100CC00040F004003060F7E7FFF734FD0099411A67
:100CD00041F2883081426AD830688007F4D50EE04E
:100CE000FFF728FD009007E0FFF724FD0099411A67
:100CF00041F2883081425AD830688007F4D4A8691C
:100D0000E8B3D9F80010C1F38101022957D00228B5
:100D1000C7F8608003D0FFF70DFD05464AE0FFF7F6
:100D200009FD064605E042E0FFF704FD801B0228AE
:100D30003DD820688001F7D4D5E90701084347F67C
:100D4000C07292FAA2F2696AB2FA82F29140AA6A79
:100D50004FF0FF3303EB52024FF4403393FAA3F307
:100D6000B3FA83F39A40114308434FF0706292FA4A
:100D7000A2F2E96AB2FA82F29140084300E01CE074
:100D8000CBF80000C7F860A0FFF7D4FC054604E0EC
:100D9000FFF7D0FC401B022809D820688001F7D556
:100DA0000BE000BFFFF7C6FC401B022802D903205E
:100DB000BDE8F88F20688001F4D40020F8E7012016
:100DC000F6E700000838024000004742800E474224
:100DD0000070004090F85100704770B5040005D0D5
:100DE0000025A56294F8510010B106E0012070BD05
:100DF00084F85050204600F031F8022084F8510069
:100E00002068016821F040010160D4E90101084334
:100E1000D4E903121143084361690843218B01F4AB
:100E200000710843E1690843216A0843A16A084345
:100E300021680860A069042101EA1040616A084342
:100E4000216848602068C16921F40061C16165655D
:100E5000012084F85100002070BD000000B500683A
:100E60000E4987B0884217D10D480021026842F42C
:100E700000420260006800F4004005904FF4E0502A
:100E800000900220CDE90101032003900620049088
:100E900069460448FFF770FB07B000BD003C004006
:100EA00040380240000802402DE9F84F04464068EF
:100EB0000026984617460D464FF00409B0F5827F8C
:100EC00001D1A06890B194F85000012819D04FF0DA
:100ED000010B84F850B0FFF72DFC009094F85100FE
:100EE0004FF0000A01280ED002267FE084F85190CE
:100EF00013460A462046CDF8008000F031F9BDE8DF
:100F0000F88F0220FBE7002D6FD0002F6DD084F802
:100F10005190C4F854A0A563A787E787C4F830A010
:100F2000A4F834A0A4F836A0C4F840A0C4F844A0A3
:100F3000A0684FF40047B84204D12068016821F44A
:100F40008041016020680168490603D4016841F0CE
:100F500040010160E068B8B133E020688168C907EA
:100F600006D0007B05F8010BE08F401EE0870BE008
:100F7000B8F1000F23D0B8F1FF3F05D0FFF7DAFB3F
:100F80000099411A41451AD2E08F0028E5D11BE0B3
:100F900020688168C90706D0C06825F8020BE08F79
:100FA000401EE0870DE0B8F1000F08D0B8F1FF3F18
:100FB00007D0FFF7BFFB0099411A414501D3032633
:100FC00014E0E08F0028E3D16068B0F5827F0AD199
:100FD000A068B84202D0B0F5806F04D120680168E3
:100FE00021F040010160606D00B1012684F851B02C
:100FF00084F850A0304682E72DE9F84F044690F877
:1010000050000026994617460D4601280DD04FF096
:10101000010B84F850B0FFF78DFB804694F8510027
:10102000B246012804D0022694E00220BDE8F88FE1
:10103000002D7BD0002F79D0032084F85100C4F814
:1010400054A02563A786E786C4F838A0A4F83CA07E
:10105000A4F83EA0C4F844A0C4F840A0A068B0F52D
:10106000004F04D12068016841F48041016020688C
:101070000168490603D4016841F040010160E0685D
:10108000B0F5006F606804D030B3E08E012823D043
:101090003EE010B1E08E01281AD135F8021B20681D
:1010A00005E020688168890706D535F8021BC16014
:1010B000E08E401EE0860BE0B9F1000F34D0B9F1AC
:1010C000FF3F05D0FFF736FBA0EB080149452BD2C7
:1010D000E08E0028E5D11EE0216815F8010B0873A9
:1010E00006E020688168890706D515F8011B0173A1
:1010F000E08E401EE0860BE0B9F1000F14D0B9F18C
:10110000FF3F05D0FFF716FBA0EB080149450BD2C6
:10111000E08E0028E5D14B46012202212046CDF881
:10112000008000F030FB10B1032613E011E04246CE
:101130004946204600F017FB18B1012620206065C3
:1011400008E0A06818B92068C16880680090606DE8
:1011500000B1012684F851B084F850A0304665E70C
:101160002DE9F84F044690F8500000260A9F9A4651
:1011700093460D464FF0010801280ED0012084F857
:101180005000FFF7D7FA814694F8510061680128B2
:101190000CD0B1F5827F07D102E00220BDE8F88FC4
:1011A000A16809B9042801D00226BDE055B1BBF100
:1011B000000F07D0BAF1000F04D094F851000128B5
:1011C00002D004E00126AFE0052084F851000020A1
:1011D0006065C4F838B0A4F83EA0A4F83CA025632C
:1011E000A4F836A0A4F834A02064606420680168E4
:1011F000490603D4016841F040010160E068B0F5A0
:10120000006F606804D0E8B3E08E01283BD06AE04C
:1012100010B1E08E01282ED1216835F8020BC8608C
:10122000E08E401EE08626E0B8F1000F0DD0E08E83
:1012300058B120688168890707D535F8021BC1605D
:10124000E08E401EE0864FF00008E08F58B1206825
:101250008168C90707D0C0682BF8020BE08F401ED9
:10126000E0874FF00108781C05D0FFF763FAA0EB88
:101270000900B84246D2E08E0028D5D1E08F002880
:10128000D2D136E0FFE7216815F8010B0873E08E34
:10129000401EE08627E000BFB8F1000F0DD0E08EC1
:1012A00058B120688168890707D515F8011B0173BB
:1012B000E08E401EE0864FF00008E08F58B12068B5
:1012C0008168C90707D0C0680BF8010BE08F401E8A
:1012D000E0874FF00108781C05D0FFF72BFAA0EB50
:1012E0000900B8420ED2E08E0028D5D1E08F002848
:1012F000D2D13B46012202212046CDF8009000F0D9
:1013000042FA08B103260FE04A463946204600F06B
:101310002AFA18B101262020606505E0A06818B9F6
:101320002068C16880680090012084F85100002086
:1013300084F85000304631E74FF0E0210428086976
:1013400003D020F004000861704740F00400FAE781
:10135000704710B5401EB0F1807F01D3012010BD51
:101360004FF0E02460610F21601700F0EBF90020DE
:10137000A06107202061002010BD10B5FFF7E8FF35
:1013800010BD70B5040004D094F83900002510B1E8
:1013900006E0012070BD84F83850204600F022F8A5
:1013A000242084F839002068C16821F40051C1600C
:1013B000204600F0B5FA2068016921F490410161EE
:1013C0002068416921F02A0141612068C16841F427
:1013D0000051C160E563202084F8390084F83A00A8
:1013E000002070BD00B500680E4987B0884217D153
:1013F0000D48016841F4802101600068694600F4ED
:10140000802005904FF44070009002200190012050
:10141000029003200390072004900448FFF7ACF8E3
:1014200007B000BD0048004040380240000C0240B8
:101430002DE9F843044690F839001F4616460D463C
:10144000202850D1A5B19EB194F8380001284AD087
:10145000012084F838004FF00008C4F83C802120B7
:1014600084F83900FFF766F9A6848146E68426E011
:101470000120BDE8F883E08C401EE084A0684B4664
:10148000B0F5805F4FF000024FF0800120460097DA
:1014900003D000F09BFBE8B90DE000F097FBC8B962
:1014A00028882168C0F308004860206908B16D1CD5
:1014B00005E0AD1C03E0216815F8010B4860E08CE5
:1014C0000028D8D14B46002240212046009700F04A
:1014D0007DFB08B10320CCE7202084F8390084F894
:1014E00038800020C5E70220C3E7FEE77FB5154836
:1014F0001349002401604FF48031C0E901140461F4
:10150000846111490462C0E90A140125C460C561FF
:1015100045610463FEF7C8FF18B149210BA000F034
:1015200088FB0420CDE90005694602940548FEF7D2
:1015300015FF002803D0532104A000F07AFB7FBDE3
:1015400000200140080000200100000F2E2E2F5324
:1015500072632F6164632E63000000007FB515483D
:101560001349002401604FF48031C0E90114046183
:10157000846111490462C0E90A140125C460C5618F
:1015800045610463FEF790FF18B16C210BA000F0D9
:1015900050FB0520CDE90005694602940548FEF799
:1015A000DDFE002803D0762104A000F042FB7FBDC1
:1015B00000210140500000200100000F2E2E2F536B
:1015C00072632F6164632E63000000002DE9F04315
:1015D0002E4887B00024016841F0100101600168C5
:1015E00001F010010591016841F08001016001687E
:1015F00001F080010591016841F00101016001687D
:1016000001F001010591016841F0080101600168E4
:1016100001F008010591016841F0040101600068D2
:101620001B4F00F004000590002209213846FFF707
:101630007BF8DFF86080BE15002231464046FFF798
:1016400073F8DFF85490012231464846FFF76CF8F2
:10165000092000900125CDE90154694638460394DC
:10166000FEF78AFF0096CDE901546946404603948F
:10167000FEF782FF0096CDE901546946484603947F
:10168000FEF77AFF07B0BDE8F08300003038024073
:10169000001002400008024000000240104810B54F
:1016A0000E4901604FF48271416000218160C16088
:1016B0004FF400720161C0E90512C161016241622B
:1016C00081620A21C162FFF788FB002805D0BDE8CE
:1016D0001040452103A000F0ACBA10BD003C004012
:1016E000D80000202E2E2F5372632F7370692E6343
:1016F000000000000D4810B50B4901604FF4E131C6
:101700004160002181600C22C160C0E90412816146
:10171000C161FFF736FE002805D0BDE81040422128
:1017200003A000F086BA10BD0048004098000020D9
:101730002E2E2F5372632F75736172742E63000007
:10174000FEE770470907090E002806DA00F00F00CF
:1017500000F1E02080F8141D704700F1E02080F8CF
:1017600000147047704738B50B46009204460022BB
:10177000802100F008F8002804D0606D40F02000BF
:101780006065032038BD2DE9F0411D4617460E4621
:101790000446DDF8188035E0681C33D02DB1FEF723
:1017A000C9FFA0EB0800A8422CD32068416821F0B3
:1017B000E00141606068B0F5827F0BD1A068B0F5B0
:1017C000004F02D0B0F5806F04D12068016821F08D
:1017D00040010160A06AB0F5005F0AD1206801688D
:1017E0004DF6FF72114001602068016841F400511C
:1017F0000160012084F85100002084F8500003208B
:10180000BDE8F0812068806836EA000004D000203E
:10181000B842C1D10020F3E70120F9E7704710B5C5
:10182000FEF78EFFBDE81040FFF7A7BD30B5254895
:1018300093B00025016841F080510160006800F01C
:10184000805011902048016841F480410160006897
:10185000022400F4804011900120009000040190C7
:101860008001CDE9064008200890C820CDE9090490
:1018700004200B906846FFF723F900B1FEE70CA99E
:101880000F2081E831004FF4E0500F904FF480506A
:10189000109003210CA8FEF7E7FF00B1FEE7FFF769
:1018A000A1F84FF47A71B0FBF1F0FFF752FD04207C
:1018B000FFF742FD00221146501EFEF7A3FF13B0B2
:1018C00030BD000040380240007000401048016800
:1018D00041F4700101600F48016841F001010160AD
:1018E0000C4A00210832116002680B4B1A4002605A
:1018F000031D0A4A1A60026822F480220260054829
:101900000C300160024958068039086070470000B9
:1019100088ED00E000380240FFFFF6FE10300024A2
:101920002DE9F04104460068016921F44052E16864
:10193000114301612168C86849F20C629043236930
:10194000A268E5691A4363692B431A430243CA60DC
:101950002168486920F44072A06910434861E16938
:101960006425B1F5004F9748974A21684FF0320837
:101970003FD0914201D081427CD1FFF751F800EB7A
:10198000C00101EB001061688900B0FBF1F6FFF7C0
:1019900047F800EBC00101EB001061688900B0FB63
:1019A000F1F0B0FBF5F06FF01801484306EB800151
:1019B00008EB0110B0FBF5F000F0F006FFF730F88F
:1019C00000EBC00101EB001061688900B0FBF1F091
:1019D000B0FBF5F006EB0016FFF722F800EBC001B4
:1019E00001EB001061688900B0FBF1F7FFF718F810
:1019F000D2E0914201D081423DD1FFF711F800EBD6
:101A0000C00101EB001061684900B0FBF1F0B0FBD0
:101A1000F5F00601FFF704F800EBC00101EB001040
:101A200061684900B0FBF1F7FEF7FAFF00EBC00177
:101A300001EB001061684900B0FBF1F0B0FBF5F07C
:101A40006FF01801484307EB800108EBC100B0FBC1
:101A5000F5F000F0F80006EB4006FEF7E1FF00EBC2
:101A6000C00101EB001061684900B0FBF1F7FEF71F
:101A7000D7FF3CE055E0FEF7BBFF00EBC00101EBF8
:101A8000001061684900B0FBF1F0B0FBF5F0060111
:101A9000FEF7AEFF00EBC00101EB001061684900EA
:101AA000B0FBF1F7FEF7A4FF00EBC00101EB001063
:101AB00061684900B0FBF1F0B0FBF5F06FF0180180
:101AC000484307EB800108EBC100B0FBF5F000F0E4
:101AD000F80006EB4006FEF78BFF00EBC00101EBC0
:101AE000001061684900B0FBF1F7FEF781FF00EBE1
:101AF000C00101EB001061684900B0FBF1F0B0FBE0
:101B0000F5F06FF01801484307EB800108EBC100C6
:101B1000B0FBF5F000F00700216830448860BDE8B4
:101B2000F081FEF765FF00EBC00101EB001061687A
:101B30008900B0FBF1F6FEF75BFF00EBC00101EBA3
:101B4000001061688900B0FBF1F0B0FBF5F06FF0B8
:101B50001801484306EB800108EB0110B0FBF5F0DB
:101B600000F0F006FEF744FF00EBC00101EB0010AF
:101B700061688900B0FBF1F0B0FBF5F006EB0016F0
:101B8000FEF736FF00EBC00101EB00106168890031
:101B9000B0FBF1F7FEF72CFF00EBC00101EB0010EA
:101BA00061688900B0FBF1F0B0FBF5F06FF018014F
:101BB000484307EB800108EB0110B0FBF5F000F0A3
:101BC0000F00A9E700140140001001402DE9F04189
:101BD000984617460E460446069D1DE0681C1BD01D
:101BE0002DB1FEF7A7FDA0EB0800A84214D920688C
:101BF000C16821F4D071C1602068416921F0010100
:101C00004161202084F8390084F83A00002084F8EB
:101C100038000320BDE8F0812068006836EA000043
:101C200004D00020B842D9D00020F3E70120F9E722
:101C3000FEE7FEE702E008C8121F08C1002AFAD139
:101C400070477047002001E001C1121F002AFBD13C
:101C500070470000B6B0FEF77BFDFFF7E7FDFFF72A
:101C6000B5FCFFF743FCFFF779FCFFF717FDFFF723
:101C700041FD22A007C833903491359222A007C8B5
:101C800030903191329250211CA8FEF7B2FA002216
:101C900001212048FEF748FD4FF47A742046FEF7F4
:101CA0005DFCC823012233A91B48FFF7A5F91A4898
:101CB000FFF790F80128FAD16423012230A91648D1
:101CC000FFF7F2F8702215496846FEF779FA41F2FB
:101CD00088352B466F2269461148FFF7A9FB20463D
:101CE000FEF73CFC6423012230A90B48FFF784F97E
:101CF0000948FFF76FF80128FAD1EAE70007A500C5
:101D00000A050607080900000755A5000A05060789
:101D10000809000000100240D80000203C1D000807
:101D200098000020000000000000000001020304F1
:101D3000060708090000000001020304202A2A2ADD
:101D40002A20554152545F54776F426F6172647319
:101D50005F436F6D506F6C6C696E67202A2A2A2A68
:101D600020202A2A2A2A20554152545F54776F4254
:101D70006F617264735F436F6D506F6C6C696E67F7
:101D8000202A2A2A2A20202A2A2A2A205541525447
:101D90005F54776F426F617264735F436F6D506F12
:101DA0006C6C696E67202A2A2A2A2000CC1D000844
:101DB0000000002008000000341C0008D41D0008AA
:101DC0000800002028050000441C00080000000056
:041DD0000024F400F7
:040000050800018965
:00000001FF
